:1000000087C2000098C2000096C2000094C200009F
:1000100092C2000090C200008EC200008CC200009C
:100020008AC200000C94F12E86C200000C945C3849
:1000300082C2000080C200007EC200007CC20000BC
:100040007AC200000C94C71876C2000074C2000087
:1000500072C2000070C200006EC200000C94C51A8B
:100060006AC200000C9444140C94081464C200008A
:1000700062C2000060C200005EC200005CC20000FC
:100080005AC2000058C2000056C200000C94E23B65
:1000900052C2000050C200004EC200004CC200001C
:1000A0004AC2000048C2000046C2000044C200002C
:1000B00042C2000040C200003EC200003CC200003C
:1000C0003AC2000038C2000036C2000034C200004C
:1000D00032C2000030C200002EC200002CC200005C
:1000E0002AC20000A407A407A407A4078A07B7111F
:1000F000B711B711B711B7118107B711B711B71100
:10010000B711B711B711D107D107D107F407F40719
:10011000B711B711B711B711B711B7118107B711DF
:100120008107B711B711B711B711B711B711B711CF
:10013000A407B7112408B711B711FA07B711B711FF
:10014000B711B711B711FA07B711B711B7118A076D
:10015000170817081708170817081708B7111D08F8
:10016000B711B711B711B711B711B711B711B7114F
:10017000B711B711B711B711B711B711B711B7113F
:10018000B711B711AA07B711B711B711B711B71146
:10019000B711B711B711B711D707D7078107EE0706
:1001A000EE075008500850085F085F085F08D1113B
:1001B000760876087608D111D111D111D111D1115B
:1001C000D111D111D111D111D111D111D111D1111F
:1001D000D111D111D111D111D111D111D111500899
:1001E000B708D511D511C108CE08DB08E808D5112C
:1001F000EC08D511FA08D51104090E091809D51112
:10020000D511D5112809350942098514891491148D
:10021000E814E814E814E814E814E814E814E814FE
:10022000E8149A149E14A214A614AA14AE14B214BC
:10023000B614E814BA14BE14C214C614CA14CE14E8
:10024000E814D214D614D725DD25E025E525EA25C6
:10025000F8250626BB26BB26BB2617261A262326EC
:100260002C26BB26BB26BB26BB26BB26BB263C2694
:100270004C265C266A266D2676267F268626BB2699
:10028000BB268F269A26A526A733AB33AF33B333CD
:10029000B733BB33BF33C333C733CB33CF33084A52
:1002A000D73B3BCE016E84BCBFFDC12F3D6C74318A
:1002B0009ABD56833DDA3D00C77F11BED9E4BB4CE1
:1002C0003E916BAAAABE000000803F05A84CCDB2AB
:1002D000D44EB93836A9020C50B9918688083CA68C
:1002E000AAAA2ABE000000803F0000007A43000056
:1002F0007A4300007A430000FA430000FA4300000A
:10030000FA4300A00C4700A00C4700A00C470000D7
:1003100048C3000048C3000048C30A000019010A8E
:10032000D7233C6F12033B00007A4400000000001A
:10033000000000C8410000FA43FA000000803F7C42
:10034000413A007C4F763A007C57434F3A007C504C
:100350006E3A007C46533A007C4C6E3A007C426612
:100360003A007C57506F733A007C4D506F733A00DF
:10037000536C65657000446F6F723A004368656343
:100380006B00416C61726D00486F6D65004A6F676C
:1003900000486F6C643A0052756E0049646C6500E9
:1003A0005B4F50543A005B5645523A312E31672E1E
:1003B00032303138303831332E4D6567613A0024A0
:1003C0004E00204D002047002053002046002054BE
:1003D0000033382E005B47433A47005B544C4F3A9A
:1003E000005B4739323A003330003238005B470057
:1003F0005B5052423A005B484C503A24242024235C
:1004000020244720244920244E2024783D76616C06
:1004100020244E783D6C696E6520244A3D6C696EDF
:10042000652024534C502024432024582024482065
:100430007E2021203F206374726C2D785D0D0A00B0
:100440000D0A4772626C20312E3167205B2724270A
:1004500020666F722068656C705D0D0A00536C65D4
:100460006570696E6700526573746F72696E67209C
:100470007370696E646C6500526573746F72696E37
:10048000672064656661756C74730050676D204504
:100490006E6400436865636B204C696D697473001A
:1004A000436865636B20446F6F72004469736162D7
:1004B0006C656400456E61626C65640043617574CF
:1004C000696F6E3A20556E6C6F636B65640027240C
:1004D00048277C2724582720746F20756E6C6F6323
:1004E0006B00526573657420746F20636F6E74695E
:1004F0006E7565005B4D53473A00414C41524D3A91
:10050000000D0A006572726F723A006F6B0D0A007F
:1005100011241FBECFEFD1E2DEBFCDBF00E00CBF84
:100520002FE0A0E0B2E001C01D92A031B207E1F7D8
:1005300003D00C947F4064CD0E94DF130E94C72635
:100540000E94421B0E9433388CE0E1E3FCE0DF01B3
:100550001D928A95E9F778941092110C8091FE0E05
:1005600084FF03C081E08093110CE1E1FCE0808115
:1005700091E1DF011D929A95E9F7808384E68783F4
:10058000808781878CE0E5E2FCE0DF011D928A959F
:10059000E9F71092240C1092230C10923D0C10924B
:1005A000100C1092220C0E94FB14FAD30E945212DB
:1005B0000E949C130E94B32E0E94F8320E94D43BEA
:1005C0000E949E280E94111B0E946F2CFBD30E9448
:1005D000D5330E94B817C9CF0F931F93CF93DF93E2
:1005E000EC018B018091FE0E85FF07C08091110CFC
:1005F000803219F0CE010E9455318091110C823069
:1006000011F10E94B2178091120C81111CC00E943E
:10061000E928882319F00E940015F3CFB801CE0114
:100620000E94C62981110FC08091FE0E81FF0BC070
:10063000F801848584FF07C04481558166817781F4
:1006400080E10E947013DF91CF911F910F91089567
:100650002F923F924F925F926F927F928F929F92D2
:10066000AF92BF92CF92DF92EF92FF920F931F93C0
:10067000CF93DF93CDB7DEB7E4970FB6F894DEBF24
:100680000FBECDBF9CAB8BAB788B6F875E874D87E2
:100690003901ED82FE820F831887082DD12C460187
:1006A000880C991C880C991C9A01280D391D3C8BCB
:1006B0002B8BD9016D917D918D919C91F301E80D6A
:1006C000F91DF8ABEFA72080318042805380A20152
:1006D00091010E94353C6D8B7E8B8F8B988FB12C56
:1006E000AA0CBB1CAA0CBB1C2D853E852A0D3B1DEC
:1006F0003A8F298FD9016D917D918D919C91F30154
:10070000EA0DFB1DFAABE9ABC080D180E280F3803B
:10071000A70196010E94353C6B8F7C8F8D8F9E8F39
:100720003201210177FA709477F87094D701C601ED
:10073000B05889879A87AB87BC87EBA9FCA9E80DDD
:10074000F91D60817181828193812D893E894F8954
:10075000588D0E94343C69837A838B839C83EBA9F8
:10076000FCA9EA0DFB1D60817181828193812B8D33
:100770003C8D4D8D5E8D0E94343C6B017C01298146
:100780003A814B815C81C301B2010E944C3F4B0115
:100790005C01A701960169857A858B859C850E94FD
:1007A0004C3F9B01AC01C501B4010E94353C4B019B
:1007B0005C01A7019601C301B2010E944C3F6B018D
:1007C0007C0129813A814B815C8169857A858B85A1
:1007D0009C850E944C3F9B01AC01C701B6010E9461
:1007E000343CA50194010E94A83C69837A838B83E1
:1007F0009C832B968FAD2B978823D9F02DEB37E375
:1008000046E055EB69817A818B819C810E94113F82
:1008100088234CF12BED3FE049EC50E469817A816B
:100820008B819C810E94343C69837A838B839C8377
:100830001AC02DEB37E346E055E369817A818B815D
:100840009C810E940E3D181674F02BED3FE049ECA0
:1008500050E469817A818B819C810E94353C698357
:100860007A838B839C8320E030E040E05FE3698102
:100870007A818B819C810E944C3F2D813E814F81EA
:1008800058850E944C3F4B015C01E894B7F82D81DC
:100890003E814F815885CA01B9010E94353CC09004
:1008A000F20ED090F30EE090F40EF090F50EA7014A
:1008B00096010E94343C9B01AC01C701B6010E9425
:1008C0004C3F0E94D93F9B01AC01C501B4010E947D
:1008D000153D0E94EB3D0E94823D6B017C017A8BAD
:1008E000698BDB01AB2B09F479C1EF85F88914859D
:1008F00013FF16C080E090E00E94AE3D9B01AC016A
:10090000AF85B8896D917D918D919C910E944C3FEE
:10091000EF85F8896083718382839383177F1487BF
:10092000B60180E090E00E94AE3D6B017C019B012E
:10093000AC0169817A818B819C810E94153D6BA7F6
:100940007CA78DA79EA710E0000F111F000F111F9D
:10095000EBA9FCA9E00FF11F608171818281938175
:100960002D853E85200F311F3A832983D9012D9192
:100970003D914D915C910E94343CA70196010E94EB
:10098000153D6F8F78A389A39AA32BA53CA54DA5F0
:100990005EA5CA01B9010E944C3F9B01AC0160E019
:1009A00070E080E090E40E94343C6B017C012BEA13
:1009B0003AEA4AE25EE36BA57CA58DA59EA50E945E
:1009C0004C3F4B015C0120E030E040E850E4C701BF
:1009D000B6010E94353C9B01AC01C501B4010E94E7
:1009E0004C3F6BA37CA38DA39EA320E030E040E0AE
:1009F0005FE3C701B6010E944C3F6FA378A789A7A8
:100A00009AA710E022242394312CC984DA84EB8441
:100A1000FC84DEC01C30E0F52BA13CA14DA15EA101
:100A2000C301B2010E944C3F4B015C012FA138A5CC
:100A300049A55AA5C701B6010E944C3F9B01AC01D4
:100A4000C501B4010E94353C962EA72EB82E092F61
:100A50002FA138A549A55AA5C301B2010E944C3F58
:100A60002B013C012BA13CA14DA15EA1C701B60108
:100A70000E944C3F9B01AC01C301B2010E94343C77
:100A80002B013C011F5FC92CDA2CEB2CF02E64C02B
:100A9000B10180E090E00E94AE3D9B01AC016BA5EE
:100AA0007CA58DA59EA50E944C3F6B017C010E94F8
:100AB000123D6D837E838F839887C701B6010E94A4
:100AC000CF3F69877A878B879C87EFA5F8A98081BC
:100AD0009181A281B3814C015D01B7FAB094B7F85E
:100AE000B094A50194016D817E818F8198850E94CB
:100AF0004C3F2B013C01A9A9BAA9CD90DD90ED9006
:100B0000FC90A701960169857A858B859C850E945A
:100B10004C3F9B01AC01C301B2010E94353C2B014B
:100B20003C01A501940169857A858B859C850E948D
:100B30004C3F4B015C01A70196016D817E818F8145
:100B400098850E944C3F9B01AC01C501B4010E94F5
:100B5000343C6B017C0110E02D893E894F89588D12
:100B6000C301B2010E94353CEB89FC89608371832B
:100B7000828393832B8D3C8D4D8D5E8DC701B60195
:100B80000E94353CA98DBA8D6D937D938D939C9376
:100B900013972F8D38A149A15AA1E981FA8160816B
:100BA0007181828193810E94353CA981BA816D93C4
:100BB0007D938D939C9313976F8578898D859E8502
:100BC0000BDD8091120C81110EC0BFEF2B1A3B0A76
:100BD000E989FA892E163F0608F41CCF6F857889BB
:100BE0008BA99CA9F9DCE4960FB6F894DEBF0FBE82
:100BF000CDBFDF91CF911F910F91FF90EF90DF90CC
:100C0000CF90BF90AF909F908F907F906F905F90AC
:100C10004F903F902F900895CF92DF92EF92FF92E6
:100C20002091110C223049F06B017C010E945A186E
:100C300040E0C701B6010E94642DFF90EF90DF9065
:100C4000CF9008950E94A82E84E00E94242F83E074
:100C50000E94242F0E94B2178091120C811105C0AE
:100C6000B1D00E946F2C0C94B32E0895EF92FF9296
:100C70000F931F93CF93DF932091110C223009F42F
:100C80005FC0C42F7B018C010E945A188091120C06
:100C9000811158C0DC2FD0711092160CC3FB88272D
:100CA00080F90E94E7320E940533882351F084E0E6
:100CB0000E94A43B0E94B21780E00E94E73282E0CB
:100CC00044C0B701C80188DC81E08093240C82E035
:100CD0000E944B390E94B2178091120C811134C0CE
:100CE0008091110C8111F6CF8091240C813081F418
:100CF000DD2351F08CE0E1E3FCE0A5E2BCE00190F3
:100D00000D928A95E1F707C085E00E94A43B03C0DD
:100D100081E08093160C1092240C80E00E94E73250
:100D20000E94B2170E94111B0E949E280E946F2CE5
:100D30000E94F2348091160C882339F081E005C0BE
:100D400080E003C082E001C082E0DF91CF911F917B
:100D50000F91FF90EF9008958091230C84FD1FC0A8
:100D600080E10E944B390E9447120E9493138091A8
:100D7000110C982F9C7221F49091150C967079F0BB
:100D8000843041F480913D0C811107C086E00E94BF
:100D9000A43B03C083E00E94A43B0C9492180895E6
:100DA00080E4EFE3FCE0DF011D928A95E9F763E65A
:100DB0007CE080E00E941825811103C087E00C943C
:100DC0007833089561E37CE087E59CE00C94E63895
:100DD00008952F923F924F925F926F927F928F92DF
:100DE0009F92AF92BF92CF92DF92EF92FF920F93BA
:100DF0001F93CF93DF93CDB7DEB7E3970FB6F89489
:100E0000DEBF0FBECDBF8C018AE3EFE7FCE0DF0160
:100E10001D928A95E9F78BE0EFE3FCE0A0E8BCE0E7
:100E200001900D928A95E1F7F8018081843241F4B6
:100E3000EFE7FCE081E0818312829924939401C062
:100E4000912CF92DF1703F2E90FE0CC083E0898328
:100E5000A12CB12CE12CF12C812C19A21AA218A3DF
:100E60000F8F42C21982F4CF9FEB910F9A3110F08D
:100E70000C94B3118F5F8983AE014E5F5F4FBE014B
:100E80006F5F7F4F8F8D98A10E949D2C882311F456
:100E90000C94B5114A805B806C807D80C301B201E7
:100EA0000E941A400E94823DC62E70E080E090E0D1
:100EB0000E94B03D9B01AC01C301B2010E94343CD1
:100EC00020E030E048EC52E40E944C3F0E94AF3FEB
:100ED0000E94823D862F972F9C01173421F01D34EC
:100EE00009F4CCC034C18C2D90E08F35910510F001
:100EF0000C94B711FC018827EE58FF4F8F4F0C94CC
:100F00005B402115310531F44AA141110C94B9110E
:100F100051E05AA3C0927F0C8CE1C81631F09EE1DB
:100F2000C91619F0ACE5CA1291C02115310529F096
:100F30002A30310511F00C94BB116C0D60937F0CBD
:100F400020E030E040E085C0BAA1B1110C94BD11A1
:100F5000E2E0EAA3C092800CF6E2CF1279C024311D
:100F6000310559F02E31310541F02832310529F093
:100F70002233310511F00C94BF11262F372FADEC21
:100F8000BCEC0E94634096958795969587959695BB
:100F900087958C0D8C598093800C20E030E041E0E7
:100FA00058C08FEE8C0D8093840C42E052C0211506
:100FB000310531F486EA8C0D8093830C43E049C0FF
:100FC0002A30310511F00C94C1112AE5C21611F432
:100FD0000C94C31120E030E044E03BC08EE58C1956
:100FE0008093810C45E035C085E18C198093820C9B
:100FF00046E02FC04AA141110C94C51151E3C5121E
:1010000008C01092850C20E030E048E083E08AA31D
:1010100020C02A30310511F00C94C71181E0809373
:10102000850C20E030E048E093E09AA312C08AECFF
:101030008C0D8093860C49E00CC02115310511F010
:101040000C94C9114AE005C047E003C040E001C06C
:1010500041E0232B11F00C94CB1181E090E002C011
:10106000880F991F4A95E2F7970128233923232BEC
:1010700011F00C94CD11E82AF92A36C1232B11F076
:101080000C94CF118C2D90E08F31910510F00C94C1
:10109000D111FC018827EF52FF4F8F4F0C945B401A
:1010A000CC2021F0A1E0CA16E1F105C083E08093D5
:1010B000870C2BE03BC0C092870C2BE037C0B4E01C
:1010C000CB1659F0E5E0CE1669F0F3E0CF122BC055
:1010D00080E18093890C2CE029C080E28093890C08
:1010E0002CE024C01092890C2CE020C028E0C2160D
:1010F00069F039E0C31689F047E0C41216C0EFE783
:10110000FCE08185806881872DE010C0EFE7FCE07E
:101110008185806481872DE009C01092880C2DE0C4
:1011200005C02BE003C02CE001C02DE081E090E081
:1011300002C0880F991F2A95E2F7970128233923C7
:10114000232B11F00C94D311E82AF92ACDC0812F5A
:1011500090E0FC01E654F109E531F10510F00C9442
:10116000D5118827E051FF4F8F4F0C945B40409280
:101170008B0C50928C0C60928D0C70928E0C20E037
:101180008DC040928F0C5092900C6092910C709296
:10119000920C582D5160852E21E080C04092930C16
:1011A0005092940C6092950C7092960C882D8260EF
:1011B000882E22E073C04092970C5092980C609257
:1011C000990C70929A0C982D9460892E23E066C039
:1011D000C0929B0C24E062C0C301B2010E947D3D1D
:1011E00060939C0C70939D0C80939E0C90939F0C2D
:1011F00025E054C04092A00C5092A10C6092A20C29
:101200007092A30C26E04AC04092A40C5092A50C08
:101210006092A60C7092A70C27E040C04092A80CE8
:101220005092A90C6092AA0C7092AB0C28E036C0C8
:1012300020E030E04FE753E4C301B2010E94113FC8
:10124000181614F40C94D711C092AC0C29E026C0E7
:101250004092AD0C5092AE0C6092AF0C7092B00CFC
:10126000A9A1A160A9A32AE019C04092B10C509293
:10127000B20C6092B30C7092B40CB9A1B260B9A375
:101280002BE00CC04092B50C5092B60C6092B70C9B
:101290007092B80CE9A1E460E9A32CE081E090E051
:1012A0006C01022E02C0CC0CDD1C0A94E2F7C501D1
:1012B0008C219D21892B11F00C94D91181E693E0AA
:1012C00002C0959587952A95E2F780FF0BC020E034
:1012D00030E0A901C301B2010E940E3D882314F43D
:1012E0000C94DB11AC28BD288981EF8DF8A1E80FA3
:1012F000F11D10811111B8CDF9A1FF2329F02AA108
:10130000211102C032E03AA3A5FE0FC080919C0CCF
:1013100090919D0CA0919E0CB0919F0C81389649A4
:10132000A849B10514F00C94DD113320F1F0A0FCB4
:1013300002C00C94DF118091820C813009F056C0FC
:101340000FE71CE023E333E34BEC51E4D8011C9698
:101350006D917D918D919C911F970E944C3FF8015A
:10136000648775878687978741C08091810C81301B
:1013700071F4FAA1F230D1F58091800C8035B1F191
:101380008823A1F1A0FC02C00C94E1112FC0809130
:10139000400C81112BC0A0FE19C08091820C8130BD
:1013A00029F50FE71CE023E333E34BEC51E4D801CC
:1013B0001C966D917D918D919C911F970E944C3F41
:1013C000F801648775878687978710C080914E0CD7
:1013D00090914F0CA091500CB091510C80938B0CBC
:1013E00090938C0CA0938D0CB0938E0CB0FC10C01D
:1013F00080914A0C90914B0CA0914C0CB0914D0CEB
:101400008093A80C9093A90CA093AA0CB093AB0C5A
:1014100080917F0C843021F4A6FED5C7E894A6F80D
:101420008091840C882319F0813069F006C0F2E0C5
:10143000FBA721E02F8F412C0CC01BA632E03F8F71
:101440004424439406C041E04BA71F8E6894442473
:1014500041F88091820C813071F528C0C12ED12CC9
:10146000802F90E0012E02C0959587950A94E2F7AF
:1014700080FF1AC0C601880F991F880F991FDC01D1
:10148000A158B34F6D0123E333E34BEC51E49E9637
:101490006D917D918D919C91D1970E944C3FF60169
:1014A00066A777A780AB91AB1F5F03C0D12C09A1C2
:1014B0001D2D133098F2FAA1F33041F48091850C80
:1014C000813021F429A1243009F07FC78CE0E3E6C4
:1014D000FCE0DE01169601900D928A95E1F7F1FE8F
:1014E00011C08091860C873008F071C79091450C2F
:1014F000891741F0BE016A5F7F4F0E94182588233B
:1015000009F467C770907F0C3AE0731629F04CE538
:10151000741609F4ADC021C159A1552309F45BC764
:10152000C50180759927892B09F457C76091A00CD4
:101530007091A10C8091A20C9091A30C0E941A4072
:101540000E94823D673008F04AC780919B0C84312D
:1015500029F0823009F045C7A7FC45C78FEAA822C9
:10156000662321F055245A94560E02C05090860CE2
:101570006FE87CE0852D0E941825882309F435C783
:10158000D12C71C00D2D10E0A9A18A2F90E00D2C57
:1015900002C0959587950A94E2F780FF63C0809119
:1015A0009B0C843109F047C0F8013696EE0FFF1FFF
:1015B000EE0FFF1FE15CF34F6081718182819381A7
:1015C000F8013C96EE0FFF1FEE0FFF1FE15CF34F9B
:1015D00020813181428153810E94343CF801EE0F19
:1015E000FF1FEE0FFF1FE158F34F26A537A540A9B7
:1015F00051A90E94343CF8013496EE0FFF1FEE0F04
:10160000FF1FE158F34F6083718382839383B2E0BD
:10161000DB1228C020917B0C30917C0C40917D0C1A
:1016200050917E0C8F010E94343CF80160837183DD
:101630008283938317C0F801EE0FFF1FEE0FFF1F89
:10164000E158F34F86A597A5A0A9B1A9F801349652
:10165000EE0FFF1FEE0FFF1FE158F34F80839183C2
:10166000A283B383D394F2E0FD1508F08BCF6DC154
:1016700029A1222309F4BBC6712C69C0072D10E0F3
:1016800039A1832F90E0072C02C0959587950A9485
:10169000E2F780FF44C0F8013696EE0FFF1FEE0F11
:1016A000FF1FE15CF34F608171818281938168014A
:1016B000CC0CDD1CCC0CDD1CE1E0F0E0EC0FFD1FE0
:1016C000EC0DFD1D25813681478150850E94343CFB
:1016D000A6014158534F6A01DA019E962D913D9122
:1016E0004D915C91D1970E94343CF60166A777A793
:1016F00080AB91ABF2E07F1229C020917B0C30913E
:101700007C0C40917D0C50917E0C0E94343CD601A3
:101710009E966D937D938D939C93D19717C0F801FE
:101720003C96EE0FFF1FEE0FFF1FE15CF34F808131
:101730009181A281B381F801EE0FFF1FEE0FFF1F11
:10174000E158F34F86A797A7A0ABB1AB7394B2E073
:10175000B71508F093CF512CF8C0EAA1E33009F493
:101760009CC0F9A1F11194C098C0062D10E029A1E8
:10177000822F90E0062C02C0959587950A94E2F797
:1017800080FD18C0F8013696EE0FFF1FEE0FFF1F09
:10179000E15CF34F80819181A281B381F801EE0F6A
:1017A000FF1FEE0FFF1FE158F34F86A797A7A0ABCF
:1017B000B1AB6CC035E3731609F468C08091830C3B
:1017C000811144C06801CC0CDD1CCC0CDD1CE1E0B7
:1017D000F0E0EC0FFD1FEC0DFD1D6581768187812A
:1017E0009085F8013C96EE0FFF1FEE0FFF1FE15CA6
:1017F000F34F20813181428153810E94353CA60103
:101800004158534F6A01DA019E962D913D914D91B9
:101810005C91D1970E94353CF60166A777A780AB13
:1018200091ABF2E06F1232C020917B0C30917C0CB6
:1018300040917D0C50917E0C0E94353CD6019E96C5
:101840006D937D938D939C93D19720C0F80136962C
:10185000EE0FFF1FEE0FFF1FE15CF34F2081318180
:1018600042815381000F111F000F111F0158134FA8
:10187000F80166A577A580A991A90E94353CD801F9
:101880009E966D937D938D939C93D197639401C0A5
:10189000612CB2E0B61508F068CFEEE17E1639F0A3
:1018A000F5E37F1609F449C02CE172124DC03CE10A
:1018B000731209C06FE87CE086E00E941825882337
:1018C00009F497C508C06FE87CE087E00E941825FE
:1018D000882309F490C549A141112AC0512C1AA2AC
:1018E00034C0822F90E0A9A14A2F50E0022E02C0FE
:1018F000559547950A94E2F740FD18C0FC013696CD
:10190000EE0FFF1FEE0FFF1FE15CF34F408151818F
:1019100062817381FC013496EE0FFF1FEE0FFF1FF3
:10192000E158F34F40835183628373832F5F01C07B
:1019300020E02330B0F2512C08C08091800C82301E
:1019400008F05BC5512C01C0512C1091800C103552
:1019500021F4B9A1B11153C593C2EAA1E23009F053
:101960008FC2111105C0F9A1FF2309F486C288C2F4
:1019700060918B0C70918C0C80918D0C90918E0CE1
:1019800020E030E0A9010E940E3D882309F439C50A
:101990001C3809F45CC240F41230A1F01330A9F0F5
:1019A000113009F06DC209C01E3809F450C208F4A4
:1019B0004BC21F3809F448C263C229A1222309F48B
:1019C0005EC25EC2392D3460932E49A1442309F4CE
:1019D0001AC5642C712C81E090E08C01042C02C0AB
:1019E000000F111F0A94E2F75F8D252E312C02C0E3
:1019F000880F991F5A95E2F7082B192B842F90E036
:101A000080239123892B09F400C5F301EE0FFF1FFA
:101A1000EE0FFF1FE158F34F66A577A580A991A9A6
:101A2000F3013696EE0FFF1FEE0FFF1FE15CF34F41
:101A300020813181428153810E94343C6FA378A779
:101A400089A79AA7F101EE0FFF1FEE0FFF1FE158C4
:101A5000F34F66A577A580A991A9F1013696EE0FFF
:101A6000FF1FEE0FFF1FE15CF34F208131814281A8
:101A700053810E94343C6CA77DA78EA79FA7A7FE29
:101A80001DC1E894A7F84CE050E06DEA7CE087E5E2
:101A90009CE00E947240892B09F4B9C48091820CA9
:101AA0008130A1F40FE71CE023E333E34BEC51E476
:101AB000D80195966D917D918D919C9198970E94FA
:101AC0004C3FF80165A376A387A390A72091A40CAF
:101AD0003091A50C4091A60C5091A70C2BA33CA3D0
:101AE0004DA35EA320E030E040E850E46BA17CA170
:101AF0008DA19EA10E944C3F9B01AC016BA17CA1DA
:101B00008DA19EA10E944C3F6BA37CA38DA39EA39D
:101B10002FA138A549A55AA5CA01B9010E944C3F79
:101B20009B01AC016BA17CA18DA19EA10E94343CC4
:101B30006BA37CA38DA39EA32CA53DA54EA55FA55D
:101B4000CA01B9010E944C3F9B01AC016BA17CA171
:101B50008DA19EA10E94343C6BA37CA38DA39EA368
:101B600020E030E0A9010E940E3D88230CF451C40E
:101B70006BA17CA18DA19EA10E94D93F9B01AC01CC
:101B800050582BA33CA34DA35EA32CA53DA54EA569
:101B90005FA56FA178A589A59AA50E94A22D9B019A
:101BA000AC016BA17CA18DA19EA10E94153D6BA3F0
:101BB0007CA38DA39EA38091800C833049F48BA1DC
:101BC0009CA1ADA1BEA1B0588BA39CA3ADA3BEA305
:101BD0002091A40C3091A50C4091A60C5091A70C1B
:101BE00028AB39AB4AAB5BAB20E030E0A90168A978
:101BF00079A98AA99BA90E940E3D8823B4F48BA1E0
:101C00009CA1ADA1BEA1B0588BA39CA3ADA3BEA3C4
:101C100088A999A9AAA9BBA9B0588093A40C9093AC
:101C2000A50CA093A60CB093A70C2CA53DA54EA582
:101C30005FA56BA17CA18DA19EA10E944C3F9B0141
:101C4000AC016FA178A589A59AA50E94343C20E03B
:101C500030E040E05FE30E944C3FF3013496EE0F2A
:101C6000FF1FEE0FFF1FE158F34F608371838283E4
:101C700093832FA138A549A55AA56BA17CA18DA15D
:101C80009EA10E944C3F9B01AC016CA57DA58EA539
:101C90009FA50E94353C20E030E040E05FE30E94D9
:101CA0004C3FF1013496EE0FFF1FEE0FFF1FE1587E
:101CB000F34F6083718382839383E2C0C82CD12C5D
:101CC0000C211D21012B09F4A6C391EFA9228091BB
:101CD000820C813051F525C0082D10E0C601082C7A
:101CE00002C0959587950A94E2F780FF18C00C5FB3
:101CF0001F4F000F111F000F111F0158134F23E337
:101D000033E34BEC51E4D8016D917D918D919C9121
:101D10000E944C3FF8016083718382839383839494
:101D200001C0812CF2E0F815B8F683010C5F1F4F5B
:101D3000000F111F000F111F0158134FD8012D91D3
:101D40003D914D915C916FA178A589A59AA50E94BE
:101D5000343C6BA37CA38DA39EA3C1010496880F82
:101D6000991F880F991FFC01E158F34F6F012081E3
:101D70003181428153816CA57DA58EA59FA50E94CE
:101D8000343C9B01AC016BA17CA18DA19EA10E9462
:101D9000A22D6FA378A789A79AA7D6012D913D916F
:101DA0004D915C91F80160817181828193810E94E3
:101DB000A22D6BA37CA38DA39EA36093A40C709310
:101DC000A50C8093A60C9093A70C9B01AC016FA16E
:101DD00078A589A59AA50E94343C9B01AC015F7748
:101DE0002FA338A749A75AA72AE037ED43EA5BE3B8
:101DF0006FA178A589A59AA50E94113F18160CF02D
:101E00003FC020E030E040E05FE36FA178A589A506
:101E10009AA50E94113F18160CF4FFC22FE632E17A
:101E200043E85AE36BA17CA18DA19EA10E944C3F87
:101E30009B01AC016FA178A589A59AA50E94113FCD
:101E400018160CF4ECC21CC0392D3061932E1E58AC
:101E5000123018F4492D4860942E59A1552309F4E5
:101E6000E0C24CE050E06DEA7CE087E59CE00E9437
:101E70007240892B09F4D7C203C01AA201C01AA26A
:101E8000892D8170782E90FE03C09EEDA92204C09A
:101E9000AEEDAA22ACEFBA22BAA1BB2311F0E3EE59
:101EA000BE22AB2809F0C1C2FE0172968DE0DF01AF
:101EB0001D928A95E9F7772059F1B6EBEB22EF28CE
:101EC00009F0B5C280917F0C853311F08111B1C248
:101ED000EFE3FCE083859485A585B6858E8B9F8B8B
:101EE000A88FB98F91858085892B8E8F6FE77CE0D5
:101EF000CE0142960E94F33B81119EC29CE0EDEA26
:101F0000FCE0A7E5BCE001900D929A95E1F794C240
:101F10008091FE0E81FF26C08091800C815083301D
:101F200018F0E92DE0649E2EF9A1FF2339F02AA1D3
:101F3000223021F4392D3068932E14C08091480C42
:101F4000803181F480913F0C8150833030F496FED3
:101F500009C0492D4062942E05C096FC03C0592D3E
:101F60005062952EAFE7BCE05D964D915D916D910D
:101F70007C919097EFE3FCE0448B558B668B778BDD
:101F80004A8F5B8F6C8F7D8F12968C918183882313
:101F900011F088E08E8FEFE7FCE04485558566857B
:101FA0007785AFE3BCE01F964D935D936D937C9373
:101FB00052974A8B5B8B6C8B7D8B1B966D917D91C1
:101FC0008D919C911E97C1A4D2A4E3A4F4A4A7016F
:101FD00096010E940E3D811102C095FE20C08091A5
:101FE000480C882361F0992054F096FE05C040E02B
:101FF00050E0BA0175D303C0B701A60171D3809137
:10200000A80C9091A90CA091AA0CB091AB0C809354
:102010004A0C90934B0CA0934C0CB0934D0C96FC37
:102020000CC080914A0C90914B0CA0914C0CB0913B
:102030004D0C8E8B9F8BA88FB98FEFE7FCE085A5A9
:10204000AFE3BCE053968C93539719969C9182858D
:10205000981749F04E895F89688D798D41D38091B9
:10206000890C8093480CEFE3FCE081859E8D892BE1
:102070008E8F90858091880C981729F088D3809155
:10208000880C8093470C8091470C9E8D892B8E8FF6
:1020900080917F0C843051F46091A00C7091A10C60
:1020A0008091A20C9091A30C0E940C06AFE7BCE0BB
:1020B00015968C911597EFE3FCE0848313968C9131
:1020C00082838AA1833071F58091850C8093440CC2
:1020D000811108C01092B50C1092B60C1092B70C7A
:1020E0001092B80C60917B0C70917C0C80917D0CEF
:1020F00090917E0CC090B50CD090B60CE090B70CCF
:10210000F090B80CA70196010E940E3D882351F073
:10211000C0927B0CD0927C0CE0927D0CF0927E0CF5
:102120000E94C7389091450C8091860C981769F0F1
:102130008093450C8CE0FE013696A3E6BCE001904E
:102140000D928A95E1F70E94C738EFE7FCE08481A1
:102150008093420C8081863209F445C038F48C317A
:1021600021F18E3111F18A3059F05EC08C3509F4BD
:1021700046C0863609F44FC0883209F055C039C0D0
:102180006FE87CE0852D0E9474248091450C5812E4
:102190004BC08CE0EFE8FCE0A3E6BCE001900D92C0
:1021A0008A95E1F70E94C7383FC08E8D81608E8F7F
:1021B0009AA1992339F0BE016E5E7F4F8DEA9CE0B3
:1021C0000E94EC02BE016E5E7F4F8FE89CE00E9491
:1021D000EC028CE0EFE8FCE0A7E5BCE001900D929A
:1021E0008A95E1F721C067E57CE086E00E947424CF
:1021F0001BC067E57CE087E00E94742415C08CE07A
:10220000EDEAFCE0AFE6BCE001900D928A95E1F7C3
:102210000E94C73809C08CE0EFE6FCE0DF011D92A8
:102220008A95E9F70E94C7388091800C80933F0C13
:10223000803509F458C0BAA1B23009F054C08130D9
:1022400049F4BE016E5E7F4F8DEA9CE00E94EC0275
:1022500080E039C081110CC08E8D81608E8FBE01EF
:102260006E5E7F4F8DEA9CE00E94EC0280E02BC006
:1022700082508230E8F4E090A40CF090A50C00911C
:10228000A60C1091A70C92FA992490F89F928BA417
:10229000AF8CC42C2FE83CE047E55CE0BE016E5EED
:1022A0007F4F8DEA9CE00E9428030F9080E00BC0D6
:1022B0008E8D84608E8F492DBE016E5E7F4F8DEABC
:1022C0009CE00E94360681110AC08CE0EDEAFCE039
:1022D000A7E5BCE001900D928A95E1F704C081303A
:1022E00011F40E94E2068091870C8093460C8823AB
:1022F00009F4A2C0DFD68091460C833049F4809166
:10230000110C823061F188E00E944B392BD627C036
:10231000EFE3FCE081E08083148213821182168255
:1023200011861086E1E1FCE084E68783808781875F
:102330008081823089F063E67CE080E00E9418258D
:10234000882309F478C00E94C73840E050E0BA0101
:1023500080E098D180E0FAD188E00E949533109215
:10236000460C872D69C081E067C082E065C084E1CA
:1023700063C088E161C084E15FC088E15DC084E141
:102380005BC084E159C084E157C088E155C084E155
:1023900053C084E151C087E14FC085E14DC087E162
:1023A0004BC084E149C085E147C084E145C086E275
:1023B00043C089E141C084E03FC08BE13DC086E17C
:1023C0003BC086E139C08CE137C085E235C08DE184
:1023D00033C087E031C08AE12FC08CE12DC08DE190
:1023E0002BC084E129C084E127C087E025C08AE1B1
:1023F00023C087E021C087E01FC08EE11DC08FE1B0
:102400001BC086E119C08AE117C080E215C081E2D5
:1024100013C082E211C083E20FC081E20DC081E2ED
:102420000BC08AE109C081E207C084E205C080E1F7
:1024300003C080E101C087E0E3960FB6F894DEBFE9
:102440000FBECDBFDF91CF911F910F91FF90EF9005
:10245000DF90CF90BF90AF909F908F907F906F90C4
:102460005F904F903F902F90089590910201892F97
:10247000887093FF0BC09091A000892F807295FF08
:1024800005C0739B02C082E0089581E00895E0EAF0
:10249000F0E080818F7D8083E2E0F1E08081877FC2
:1024A00080830895E1E0F1E080818061808383E0B2
:1024B0008093A0008AE18093A10080E094E0909353
:1024C000A9008093A8008081886080838DB1886096
:1024D0008DB96091F60E7091F70E8091F80E909183
:1024E000F90E2091FA0E3091FB0E4091FC0E5091A6
:1024F000FD0E0E94343C9B01AC0160E070EC8FE764
:1025000094E40E94153D6093000270930102809351
:10251000020290930302BBCF08959093AB00809387
:10252000AA00892B31F4E0EAF0E080818F7D80837E
:102530000895E0EAF0E080818062808308954F9200
:102540005F926F927F928F929F92AF92BF92CF9243
:10255000DF92EF92FF926B017C0160911A0C70E0A8
:1025600080E090E00E94B03D2AE037ED43E25CE37A
:102570000E944C3FA70196010E944C3F2B013C0159
:102580008090FA0E9090FB0EA090FC0EB090FD0E85
:10259000C090F60ED090F70EE090F80EF090F90E85
:1025A000A7019601C501B4010E94113F882344F49C
:1025B000A7019601C301B2010E94113F88235CF07C
:1025C000C0921E0CD0921F0CE092200CF092210CB5
:1025D00080E094E04AC0A5019401C301B2010E94C9
:1025E0000E3D1816FCF020E030E0A901C301B20155
:1025F0000E940E3D81110BC010921E0C10921F0CF8
:102600001092200C1092210C80E090E02EC080925D
:102610001E0C90921F0CA092200CB092210C81E015
:1026200090E023C040921E0C50921F0C6092200C30
:102630007092210CA5019401C301B2010E94343CA7
:102640002091000230910102409102025091030258
:102650000E944C3F0E94EB3D20E030E040E85FE309
:102660000E94353C0E94823DCB01FF90EF90DF90AD
:10267000CF90BF90AF909F908F907F906F905F9022
:102680004F9008959091120C911129C081110AC0A8
:1026900010921E0C10921F0C1092200C1092210C04
:1026A000F6DE1BC0803121F49EB1977F9EB903C036
:1026B0009EB198609EB99091FE0E91FF05C0803248
:1026C00019F440E050E0BA01CB01BA0138DF25DF50
:1026D000E2E0F1E080818860808310921C0C089514
:1026E000CF92DF92EF92FF92CF939091110C9230A4
:1026F00041F06A017B01C82FDDD4B701A6018C2F00
:10270000C1DFCF91FF90EF90DF90CF90089580913F
:10271000020185FD02C080E001C080E490910201C9
:1027200096FD80680895E2E0F1E080818F7D8083EE
:1027300080818F7B80830895E1E0F1E08081806279
:102740008083808180648083EECF08959091120C05
:1027500091111CC086FF06C0E2E0F1E0908190621A
:10276000908305C0E2E0F1E090819F7D9083882313
:1027700034F4E2E0F1E080818064808305C0E2E02F
:10278000F1E080818F7B808310921C0C0895CF93A1
:102790009091110C923021F0C82F8CD48C2FD6DF61
:1027A000CF9108958091060290910702981720F02A
:1027B000981B892F80950895891B81500895E0EC1E
:1027C000F0E08081826080831092C50080E1809378
:1027D000C400E1ECF0E08081886980830895E09195
:1027E000050221E02E0F04C09091230C94FD0FC030
:1027F000909104022917C1F3F0E0E754F34F80836E
:1028000020930502E1ECF0E08081806280830895EE
:102810001F920F920FB60F9211240BB60F928F9347
:102820009F93EF93FF9380910402E82FF0E0E75429
:10283000F34F90819093C6008F5F80930402909134
:102840000502891305C0E1ECF0E080818F7D808373
:10285000FF91EF919F918F910F900BBE0F900FBE44
:102860000F901F901895909106028091070298177B
:1028700049F0E92FF0E0E754F24F80819F5F909399
:10288000060208958FEF08951F920F920FB60F92D0
:1028900011240BB60F922F933F934F935F936F9337
:1028A0007F938F939F93AF93BF93EF93FF93E091A9
:1028B000C600E132A1F018F4E83131F014C0EF3372
:1028C00031F0EE3741F00FC00E94AC0681C081E0CC
:1028D0000E944B397DC082E00E944B3979C088E06C
:1028E0000E944B3975C0EE230CF064C08E2F90E02F
:1028F000FC01E458F109EE31F10508F069C08827C0
:10290000EB5FFE4F8F4F0C945B4080E20E944B398F
:102910005FC08091110C85FF5BC080E40E944B3941
:1029200057C09FB7F89480913E0C816080933E0C15
:102930009FBF4EC081E00E94B03B4AC082E00E942F
:10294000B03B46C084E00E94B03B42C088E00E9499
:10295000B03B3EC080E10E94B03B3AC080E20E94A2
:10296000B03B36C080E40E94B03B32C080E80E9499
:10297000B03B2EC081E00E94B93B2AC082E00E9499
:10298000B93B26C084E00E94B93B22C088E00E9487
:10299000B93B1EC080E10E94B93B1AC080E20E9490
:1029A000B93B16C080E40E94B93B12C080E80E9487
:1029B000B93B0EC0A091070281E08A0F90910602F8
:1029C000891731F0B0E0A754B24FEC93809307021F
:1029D000FF91EF91BF91AF919F918F917F916F91F7
:1029E0005F914F913F912F910F900BBE0F900FBEB3
:1029F0000F901F901895809107028093060208950A
:102A00000E94C328892B19F082E00C944B39089559
:102A1000CF93DF93C0913D0CCC23A9F081E080934C
:102A2000110C8C2F0E948833C150C23050F481E0C9
:102A30000E94953380E10E949A3B8091230C84FF91
:102A4000FCCF0E94AA3BC091230CCC2309F4F0C018
:102A5000C4FF04C081E08093120C8FC1C0FF05C089
:102A60000E94393681E00E949A3B8C2F887E09F4BF
:102A70005EC08091110C982F937009F047C0887246
:102A800089F08091130C807C69F420D6E1E1FCE0B0
:102A900082E084838081803229F4CC231CF08281FF
:102AA000806882838091110C811103C091E0909322
:102AB000130CC6FF07C085FD05C0E1E1FCE0928173
:102AC00090649283C3FF05C0807E19F480E18093F7
:102AD000110CC5FF1BC086E00E9495338091130C3A
:102AE00088237CF09091110C903431F483FF04C062
:102AF000837E82608093130C903819F080E4809379
:102B0000110CE1E1FCE0828180628283CC2364F4D9
:102B10008091110C813029F4E1E1FCE08281856033
:102B2000828380E88093110C88EE0E949A3BC1FF5B
:102B300042C08C2F8876E1F58091110C803471F4BD
:102B40008091130C85FD0AC084FF03C01092110C04
:102B500005C082FF03C088608093130C8091110C24
:102B6000882331F084FF24C09091130C90FF20C083
:102B7000803141F480911B0C882321F08860809380
:102B80001B0C16C01092150C0E94C328892B61F0F3
:102B90008091130C86FD08C0E1E1FCE0128288E020
:102BA0008083B4D59BD204C0E1E1FCE012821082A4
:102BB00082E00E949A3BC2FF3BC08091110C807D55
:102BC000B9F08091140C811113C08091130C8823EB
:102BD0007CF00E94952C8091150C81FF05C0E1E1ED
:102BE000FCE0928191609283897F8093150C1DC0D7
:102BF0008091130C88234CF41092150C0E949E288F
:102C000010D50E94E2060E946F2C8091130C85FF64
:102C100008C08F77E1E1FCE08160828380E48083FB
:102C200004C0E1E1FCE01282108284E00E949A3B41
:102C3000C091100CCC2381F10E94C23B2091180C52
:102C4000C0FD02C0822F01C084E6C1FD865FC2FDC7
:102C50008A50C3FD8F5FC4FD8150893C08F088EC29
:102C60008A3008F48AE03091190CC5FD02C0932F18
:102C700001C094E6C6FD92E3CC230CF499E128133D
:102C800002C0931749F0E1E1FCE087839087138647
:102C90000E946B290E94952CC091220CCC2309F430
:102CA0005FC00E94C83B90911A0CC0FD02C0892FE2
:102CB00001C084E6C1FD865FC2FD8A50C3FD8F5FFF
:102CC000C4FD8150893C08F088EC8A3008F48AE021
:102CD0009817B1F0E1E1FCE081878081811109C0A2
:102CE000EFE3FCE043855485658576858185CADC04
:102CF00005C0E1E1FCE084818860848310921C0CB3
:102D0000C5FF11C08091110C803169F480911B0CBA
:102D1000811104C082E080931B0C05C080FF03C0BA
:102D2000846080931B0C8C2F807CD1F08091110CDF
:102D3000882311F08873A1F0D091470CCC232CF498
:102D4000DD2314F4DF7701C0D068C6FF05C0D6FFCD
:102D500002C0DF7B01C0D0648D2FF8DCD093470C1C
:102D600080913E0C882321F00E94323810923E0C54
:102D70008091110C8C7F09F0C9D4DF91CF91089517
:102D8000CF92DF92EF92FF921F93CF93DF930E9437
:102D9000C328EC01892B51F4EFE3FCE01185808519
:102DA000182BC384D484E584F68408C01989AFDC69
:102DB0001073182BCAA8DBA8ECA8FDA88091FE0E02
:102DC00081FFC4C080E20E94B93BC0C09091120C48
:102DD0009111C0C080FFB9C09091110C292F207CA7
:102DE00009F46DC082FD0FC0C1E1DCE01A8640E04D
:102DF00050E0BA0180E046DC80E0A8DC8A818D7F6B
:102E000084608A83A2C0903891F48BE00E9495334D
:102E100040E050E0BA0180E035DC80E097DC82D110
:102E200001C0F6DD8091120C8823D9F393C0903451
:102E300049F40E94A138811105C0E1E1FCE08281E2
:102E40008F7D82838091130C83FF7FC09091480C0B
:102E50009923C1F081FD16C08091FE0E81FF06C04E
:102E6000E1E1FCE08481886084830CC0B701A601A5
:102E7000812F807307DC41E060E070E080E890E43F
:102E80000E94642D8091470C882371F08091130C6F
:102E900081FD0AC0812F807C59DC41E060E070E058
:102EA00080E89FE30E94642D8091130C81FD4DC04A
:102EB00080618093130C82E00E944B3946C0809160
:102EC0001B0C8823A1F181FF10C08091480C88233E
:102ED00049F040E050E0BA0180E0D4DB81E080932B
:102EE0001B0C33C010921B0C30C08C7071F18091A0
:102EF000480C882391F08AE00E9495338091FE0E61
:102F000081FF06C0E1E1FCE084818860848305C024
:102F1000B701A601812F8073B5DB80911B0C83FF65
:102F200003C082E00E944B3910921B0C0EC08091AE
:102F3000150C83FF0AC0B701A601812F8073A2DBA5
:102F4000E1E1FCE08481877F848362DD8091130C62
:102F500081113CCFDF91CF911F91FF90EF90DF90D7
:102F6000CF90089555DD8091130C811109CF0895FC
:102F7000CF93DF938091FE0E83FF0AC00E94CA2E7A
:102F8000882331F081E08093110C87E00E94953313
:102F90008091110C817849F082E00E94953381E0A4
:102FA0008093110CC0E0D0E078C01092110C0E9408
:102FB000A138882331F08091230C80628093230C08
:102FC000D1DF88E092E00E94A438ECCF8A3011F083
:102FD0008D30C9F5C7DF8091120C811168C0EC2FCC
:102FE000F0E0E85FFD4F1082D0FF06C08BE00E944A
:102FF0007833C0E0D0E051C080910802811105C053
:103000000E947833C0E0D0E048C0843249F488E0C0
:1030100092E00E9454390E947833C0E0D0E03DC075
:103020008091110C817231F089E00E947833C0E008
:10303000D0E033C088E092E00E94E9060E94783335
:10304000C0E0D0E02AC0DD2331F0893231F5D1FF74
:1030500024C0DD7F22C0813200F18F32F1F088324E
:1030600011F4D2601AC08B3311F4D46016C0CF3F74
:1030700011F4D16012C09FE9980F9A3140F4EC2FFF
:10308000F0E0E85FFD4F80528083CF5F06C0EC2FF9
:10309000F0E0E85FFD4F8083CF5FE5DB8F3F09F015
:1030A00095CFAEDC5FDF8091120C8823B1F3DF9106
:1030B000CF910895A5DC56DF8091120C811108C0D4
:1030C0000E94C328892BB9F78091110C883099F39D
:1030D00008958F5F893009F480E008958091FE0E95
:1030E00082FF04C085B1806885B903C085B18F7740
:1030F00085B9E3E4F3E080913F0386878091E90E90
:1031000090E00297092E000CAA0BBB0B880F991FA9
:10311000AA1FBB1F81958587EFE6F0E08081826062
:1031200080830895EFE6F0E080818D7F8083E1E881
:10313000F0E08081887F8160808310923D038091E0
:10314000EC0E8F3F41F490913D0C911104C0909191
:10315000110C903849F49091110C943039F090E0B2
:103160000E94942D81E003C080E001C080E0909136
:10317000FE0E92FF02C091E08927882321F085B1DD
:10318000806885B9089585B18F7785B908951F92B4
:103190000F920FB60F9211240BB60F922F933F93FD
:1031A0004F935F936F937F938F939F93AF93BF934F
:1031B000CF93DF93EF93FF9380913D038111D0C1B3
:1031C00098B1E3E4F3E087859F71807E892B88B90D
:1031D00082B19685837E892B82B9858586BD82E002
:1031E00085BD81E080933D03789481A192A1892BD4
:1031F00009F0A9C09091410380914203981709F406
:1032000093C0E0914203F0E0EE0FFF1FEE0FFF1FAF
:10321000EE0FFF1FEA59FC4FA3E4B3E09296FC9334
:10322000EE93919782819381909389008093880097
:10323000808191815D969C938E935C975E969C9124
:103240005E978481981749F1ED018E8F90E0880F89
:10325000991FDC01AA0FBB1FAA0FBB1FAA0FBB1F20
:103260008A0F9B1FDC01AA54BC4FB8A3AF8F1C96DA
:103270008D919D910D90BC91A02DB695A795979598
:10328000879588879987AA87BB878C839D83AE8320
:10329000BF8388839983AA83BB83A3E4B3E05F964B
:1032A000CD91DC919097888990913E0389271F9654
:1032B0008C931F97488159816A817B81058004C066
:1032C00076956795579547950A94D2F750964D9302
:1032D0005D936D937C9353974C815D816E817F816B
:1032E000058004C076956795579547950A94D2F75F
:1032F00054964D935D936D937C935797488559856C
:103300006A857B85058004C07695679557954795B6
:103310000A94D2F758964D935D936D937C935B9787
:1033200086819781FAD80FC0FDDEE0916203F091AB
:1033300063038189882319F080E090E0EED884E06F
:103340000E944B390DC18091240C813011F40E94F0
:103350000C33E3E4F3E0168640895189628973896E
:1033600080819181A281B381840F951FA61FB71F11
:1033700080839183A283B383078CF0A1E02D4485E1
:10338000558566857785481759076A077B0770F565
:10339000C3E4D3E024E02E87448555856685778590
:1033A000841B950BA60BB70B88839983AA83BB83D9
:1033B0008089882374F4C1E3DCE088819981AA8143
:1033C000BB810197A109B10988839983AA83BB8333
:1033D0000DC0C1E3DCE088819981AA81BB8101969F
:1033E000A11DB11D88839983AA83BB83C3E4D3E065
:1033F0004C895D896E897F898C819D81AE81BF8179
:10340000840F951FA61FB71F8C839D83AE83BF8338
:103410004485558566857785481759076A077B0770
:1034200068F52E8528602E874485558566857785C5
:10343000841B950BA60BB70B8C839D83AE83BF8338
:10344000808986FF0EC0C1E3DCE08C819D81AE8166
:10345000BF810197A109B1098C839D83AE83BF838E
:103460000DC0C1E3DCE08C819D81AE81BF810196FE
:10347000A11DB11D8C839D83AE83BF83C3E4D3E0C4
:10348000488D598D6A8D7B8D88859985AA85BB85E8
:10349000840F951FA61FB71F88879987AA87BB87A8
:1034A0004485558566857785481759076A077B07E0
:1034B00068F52E8520612E8744855585668577853C
:1034C000841B950BA60BB70B88879987AA87BB87A8
:1034D000808985FF0EC0E1E3FCE080859185A285AF
:1034E000B3850197A109B10980879187A287B38726
:1034F0000DC0E1E3FCE080859185A285B38501964E
:10350000A11DB11D80879187A287B3878091110C7F
:10351000843039F48091170CE3E4F3E09685892335
:103520008687E3E4F3E0848D958D0197958F848FF2
:10353000892B69F410926503109264038091420311
:103540008F5F809342038A3011F410924203E3E4C8
:10355000F3E0968580913F038927868710923D038B
:10356000FF91EF91DF91CF91BF91AF919F918F919B
:103570007F916F915F914F913F912F910F900BBE73
:103580000F900FBE0F901F9018951F920F920FB6BD
:103590000F9211248F939F9382B190913F039C715E
:1035A000837E892B82B915BC9F918F910F900FBE9E
:1035B0000F901F9018950F931F93CF9310923F0376
:1035C00010923E03C0E027C08091EA0E0C2F90E0DD
:1035D0000C2E02C0959587950A94E2F780FF08C0EB
:1035E0008C2F0E94D22690913F03892B80933F031A
:1035F0008091EB0E90E002C0959587950A95E2F7D1
:1036000080FF08C08C2F0E94DC2690913E03892BFE
:1036100080933E03CF5FC330B8F2CF911F910F91DB
:103620000895CF93DF937EDD81E3E8E0F3E0DF01EF
:103630001D928A95E9F7C3E4D3E083E2FE0111927B
:103640008A95E9F710923C0310923B0310924203D3
:103650001092410381E08093400310923D03ABDF61
:1036600080913E038F8782B1837E90913F03892BA7
:1036700082B988B18F7190913E03892B88B9DF910F
:10368000CF91089581B18C6181B984B1806884B98A
:1036900087B1806E87B9E1E8F0E080818F7E80831A
:1036A000808188608083E0E8F0E080818C7F808387
:1036B00080818F708083EEE6F0E08081887F808358
:1036C00014BC15BC8081816080830895CF93DF9303
:1036D000C0913B03D0913C032097A9F0E8E0F3E0D0
:1036E0008181816081836789708D818D928D9B013D
:1036F000AC010E944C3F6E8B7F8B888F998F10920C
:103700003C0310923B03DF91CF9108952F923F929B
:103710004F925F926F927F928F929F92AF92BF92E1
:10372000CF92DF92EF92FF920F931F93CF93DF938D
:10373000CDB7DEB76F970FB6F894DEBF0FBECDBF23
:103740008091150C80FFECC7F1C780913B039091ED
:103750003C03892B09F040C38091150C82FF07C000
:103760000E94BA2890933C0380933B0306C00E94BA
:10377000C32890933C0380933B03E0903B03F0907D
:103780003C03E114F10409F4D1C78091090380FFDF
:1037900003C010920903EDC008E013E0D8018C913A
:1037A00098DCF801808390E0880F991FFC01EE0FF0
:1037B000FF1FEE0FFF1FEE0FFF1FE80FF91FEA5468
:1037C000FC4FF0933A03E0933903D70150968C9164
:1037D000808B20E0FA82E98223C0822F90E0880F5C
:1037E000991F880F991FA981BA81A80FB91F4D9100
:1037F0005D916D917C91440F551F661F771F440F9B
:10380000551F661F771F440F551F661F771FDF0167
:10381000A80FB91F4D935D936D937C9313972F5F02
:103820002330D8F2E980FA80D7011C964D915D9142
:103830006D917C911F97DB01CA01880F991FAA1F08
:10384000BB1F880F991FAA1FBB1F880F991FAA1F94
:10385000BB1F84879587A687B787F7016485758521
:10386000868597850E94AE3D08E013E0D801169644
:103870006D937D938D939C931997F70122A133A1AA
:1038800044A155A10E94153D9B01AC01D8011A9697
:103890006D937D938D939C931D9760E070E080EA1B
:1038A0009FE30E94153DF80166877787808B918B97
:1038B00012821382148215828091150C81FD04C03E
:1038C0008091090383FF1CC008E013E0F801678DB5
:1038D00070A181A192A1678B708F818F928F9B01C4
:1038E000AC010E944C3FF701668B778B808F918FE4
:1038F000D80111968C911197877F11968C930FC0E8
:10390000F70166897789808D918D0E94D93F6093F8
:103910001F037093200380932103909322038091CF
:10392000390390913A039A838983DC0151961C9262
:103930008091FE0E81FF1DC0E0913B03F0913C039E
:10394000818985FF16C026A537A540A951A960E049
:1039500070E080E89FE30E94153D6093330370930D
:103960003403809335039093360381E0E981FA8133
:10397000818B10921B0310921C0310921D03109256
:103980001E0380913B0390913C039E838D83DC0159
:103990005E96CD90DD90ED90FC909197A7019601F9
:1039A00060E070E080E09FE30E94153D69837A83C8
:1039B0008B839C838091150C81FF52C082E08093A1
:1039C0001A03ED81FE8142A053A064A075A08688F1
:1039D0009788A08CB18CA501940169817A818B8133
:1039E0009C810E944C3F9B01AC01C301B2010E942B
:1039F000343C69837A838B839C8320E030E0A90187
:103A00000E940E3D8823ECF4A7019601C701B60180
:103A10000E94353C9B01AC01C301B2010E944C3FA6
:103A20009B01AC01C501B4010E94343C0E94D93F06
:103A300060932703709328038093290390932A03AC
:103A4000C6C1E8E0F3E089819A81AB81BC81838BB8
:103A5000948BA58BB68B178E10A211A212A2B7C1A0
:103A6000E8E0F3E0128AAD81BE8192964D915D91BE
:103A70006D917C91959743A354A365A376A382FF90
:103A80000DC0109227031092280310922903109260
:103A90002A031D861E861F86188A10C00E94D328FE
:103AA0006D877E878F87988B0E94D93F609327030D
:103AB000709328038093290390932A0380913B03FA
:103AC00090913C030E94F3286B017C019B01AC01A7
:103AD0000E944C3F6D837E838F83988700913B03C8
:103AE00010913C03F80182A093A0A4A0B5A0468841
:103AF0005788608C718C2D853E854F855889C30110
:103B0000B2010E94343C9B01AC0169817A818B81B6
:103B10009C810E944C3F9B01AC01C501B4010E94F5
:103B2000353C20E030E040E05FE30E944C3F698795
:103B30007A878B879C87A30192016D817E818F811B
:103B400098850E940E3D88230CF075C02D813E8122
:103B50004F815885C301B2010E94343C9B01AC01E6
:103B600069817A818B819C810E944C3F9B01AC01D1
:103B7000C501B4010E94343C60932B0370932C0365
:103B800080932D0390932E0320E030E0A9010E9442
:103B90000E3D18168CF182E080931A03D8015696D8
:103BA000CD90DD90ED90FC9059975E966D917D9152
:103BB0008D919C9191979B01AC010E94353CF8013D
:103BC00022A133A144A155A10E944C3F9B01AC010D
:103BD000C701B6010E94343C0E94D93F609327037D
:103BE000709328038093290390932A0380910903FB
:103BF000886080930903EBC02D853E854F855889E9
:103C00006D817E818F8198850E94343C9B01AC013F
:103C100069817A818B819C810E944C3FE8E0F3E0CE
:103C200067A370A781A792A7C38ED48EE58EF68E68
:103C300083E0828BCCC020E030E0A90169857A85E1
:103C40008B859C850E94113F18160CF0B2C0298507
:103C50003A854B855C85C501B4010E94113F181659
:103C60000CF0A3C02D853E854F8558896D817E81DE
:103C70008F8198850E94343C9B01AC0169817A81D7
:103C80008B819C810E944C3F9B01AC0160932F0370
:103C900070933003809331039093320369857A8562
:103CA0008B859C850E94113F18160CF042C0C09273
:103CB0002303D0922403E0922503F0922603D80137
:103CC00056964D905D906D907C905997A30192010E
:103CD0006D817E818F8198850E940E3D811104C087
:103CE00081E080931A0373C0A30192016D817E81EC
:103CF0008F8198850E94343C9B01AC0169817A8157
:103D00008B819C810E944C3F9B01AC0160912B03F5
:103D100070912C0380912D0390912E030E94343CCE
:103D200060932B0370932C0380932D0390932E03A9
:103D30004EC089859A85AB85BC8580932B03909373
:103D40002C03A0932D03B0932E0380932F03909305
:103D50003003A0933103B0933203D8015E966D9186
:103D60007D918D919C9191979B01AC010E94353C76
:103D70009B01AC0169857A858B859C850E944C3FAF
:103D80006B017C01A70196016D857E858F859889E1
:103D90000E94353C0E94D93F609323037093240313
:103DA000809325039093260312C082E080931A0328
:103DB0000EC0E8E0F3E013A214A215A216A2878DAC
:103DC00090A1A1A1B2A1838F948FA58FB68FE1E1BD
:103DD000FCE0848188608483E09141038E2F90E031
:103DE0009E8F8D8FA8E0B3E08C91ED8DFE8DEE0F50
:103DF000FF1FEE0FFF1FEE0FFF1FEA59FC4F8483DA
:103E0000E0913B03F0913C03FE87ED87F2A1F98F2F
:103E1000ED85FE85F3A1FA8FED85FE85F4A1FB8F7C
:103E2000ED85FE85F5A1FC8F1E962D913D914D915E
:103E30005C915197698D7A8D8B8D9F2F0E94343CB8
:103E40006D8B7E8B8F8B988F20E030E0A9010E94D4
:103E50000E3D882324F41D8A1E8A1F8A188EA98C81
:103E6000BA8C2B8C3C8C8EE393ECAEE2B9E3898761
:103E70009A87AB87BC8719821A821B821C828D832A
:103E80009E83AF83B8870F2EFEE3CF2EF3ECDF2E99
:103E9000FEE2EF2EF9E3FF2EF02D7A2C6B2C522C44
:103EA000432C80911A03813009F448C108F49CC066
:103EB000833009F08CC1AD85BE855E962D913D9114
:103EC0004D915C919197C701B6010E944C3F698B5F
:103ED0007A8B8B8B9C8BE8E0F3E08789908DA18DAA
:103EE000B28D89879A87AB87BC87838C948CA58C8D
:103EF000B68CA5019401BC01CD010E94343C9B010C
:103F0000AC0169897A898B899C890E94113F882339
:103F1000A4F170902B0360902C0350902D034090DF
:103F20002E03272D362D452D542D698D7A8D8B8DA1
:103F30009C8D0E94343C9B01AC010E94353C6B017E
:103F40007C01A501940169857A858B859C850E94F9
:103F5000353C9B01AC01C701B6010E94153D6B01C8
:103F60007C0181E080931A0380921F0390922003CA
:103F7000A0922103B0922203D1C120E030E040E0C2
:103F80005FE369897A898B899C890E944C3F9B01F8
:103F9000AC0169857A858B859C850E94343C9B01A8
:103FA000AC01C701B6010E944C3F9B01AC01672DDB
:103FB000762D852D942D0E94343C762E672E582E1A
:103FC000492E29893A894B895C8969857A858B854F
:103FD0009C850E94343C60931F0370932003809360
:103FE0002103909322039AC1AD85BE855E962D91E3
:103FF0003D914D915C919197C701B6010E944C3F54
:104000004B015C0180911F0390912003A09121033B
:10401000B091220389879A87AB87BC8720E030E084
:1040200040E05FE3C501B4010E944C3F9B01AC013D
:1040300069857A858B859C850E94353C9B01AC0106
:10404000C701B6010E944C3F9B01AC01672D762D44
:10405000852D942D0E94343C762E672E582E492EA5
:1040600030902B0320902C0310912D0300912E03F0
:10407000232D322D412F502F0E940E3D88230CF00E
:104080004CC0232D322D412F502F698D7A8D8B8D71
:104090009C8D0E94343C9B01AC010E94353C6B011D
:1040A0007C0140902303509024036090250370907E
:1040B0002603A301920169857A858B859C850E94E0
:1040C000353C9B01AC01C701B6010E94153D6B0157
:1040D0007C0120912F0330913003409131035091A6
:1040E0003203632D722D812F902F0E940E3D81117E
:1040F00004C082E080931A0303C081E080931A0316
:1041000040921F0350922003609221037092220379
:10411000732C622C512E402E01C129853A854B8586
:104120005C85C501B4010E94353C60931F03709308
:1041300020038093210390932203F0C080912303F6
:1041400090912403A0912503B091260389879A8733
:10415000AB87BC879C01AD01C701B6010E944C3FF3
:104160009B01AC01672D762D852D942D0E94343C4A
:10417000262E872E982EA92E30902F03B090300334
:104180000091310310913203232D3B2D402F512FED
:104190000E940E3D88230CF0BDC0232D3B2D402FE7
:1041A000512F672D762D852D942D0E94343C298525
:1041B0003A854B855C850E94153D6B017C0182E050
:1041C00080931A03732C6B2C502E412EA7C0AD8503
:1041D000BE855E962D913D914D915C919197C70161
:1041E000B6010E944C3F4B015C0180911F039091EE
:1041F0002003A0912103B091220389879A87AB877E
:10420000BC879C01AD01C501B4010E940E3D88230D
:104210000CF043C020E030E040E05FE3C501B401B2
:104220000E944C3F9B01AC0169857A858B859C85FA
:104230000E94343C9B01AC01C701B6010E944C3F77
:104240009B01AC01672D762D852D942D0E94343C69
:10425000062F172F8F8F998B20911B0330911C03F2
:1042600040911D0350911E030E94113F1816ACF49B
:10427000A501940169857A858B859C850E94343CD3
:1042800060931F0370932003809321039093220374
:10429000702E612E5F8C498841C020901B030091D5
:1042A0001C0330901D0310911E03222D302F432D2F
:1042B000512F672D762D852D942D0E94343C9B0126
:1042C000AC010E94353C6B017C014090270350906B
:1042D00028036090290370902A03A3019201698545
:1042E0007A858B859C850E94353C9B01AC01C7017A
:1042F000B6010E94153D6B017C0140921F03509254
:1043000020036092210370922203722C602E532CA2
:10431000412E04C0722C682C592C4A2CA7019601FE
:1043200069817A818B819C810E94353C69837A8383
:104330008B839C839B01AC016D817E818F819885ED
:104340000E94113F18166CF429813A814B815C81DF
:104350006D817E818F8198850E94343C6B017C0148
:1043600022C02D893E894F89588D672D762D852D48
:10437000942D0E94113F18163CF52EE333EC4EE2CB
:1043800059E36D817E818F8198850E94353C6D83D4
:104390007E838F83988729813A814B815C810E943B
:1043A000343C6B017C0120911B0330911C03409134
:1043B0001D0350911E03672D762D852D942D0E948F
:1043C000113F18160CF46DCDA72CB62C252C342CCF
:1043D000E0913903F0913A039189911104C08091E1
:1043E000150C83FF3DC0AD85BE8551968C915197CC
:1043F000807329F1D296CD90DD90ED90FC90D59709
:104400009923A1F0E8E0F3E06789708D818D928DAA
:1044100023A534A545A556A50E944C3F9B01AC01A0
:10442000C701B6010E944C3F6B017C01C701B60178
:104430000E949F1290933803809337030CC0109210
:104440001E0C10921F0C1092200C1092210C109236
:10445000380310923703E1E1FCE08481877F848395
:1044600080913703909138030D8D1E8D000F111F21
:10447000000F111F000F111F0A591C4FF8019783DD
:1044800086832091120330911303409114035091BD
:1044900015036A2D7B2D822D932D0E944C3F6D8339
:1044A0007E838F8398870E94FB3C2B013C016091A7
:1044B0000E0370910F0380911003909111030E94DD
:1044C000FB3C6D877E878F87988BA30192010E94AA
:1044D000343C0E94823D6B017C01D8016D937C933A
:1044E000672B41F48091150C81FF04C0816080939B
:1044F000150C1CC120910A0330910B0340910C0351
:1045000050910D0369817A818B819C810E94353C99
:1045100069837A838B839C832D813E814F8158856B
:104520006D857E858F8598890E94343C9B01AC0106
:1045300069817A818B819C810E94153D69837A8390
:104540008B839C8320EC31EE44E65EE40E944C3F7A
:104550000E94FB3C0E94823D603DB7E07B078105E5
:10456000910560F4ED8DFE8DEE0FFF1FEE0FFF1F26
:10457000EE0FFF1FEA59FC4F15824CC0603AEFE086
:104580007E078105910568F4ED8DFE8DEE0FFF1F0E
:10459000EE0FFF1FEE0FFF1FEA59FC4F21E02583AE
:1045A0001FC06034FFE17F078105910568F4ED8D40
:1045B000FE8DEE0FFF1FEE0FFF1FEE0FFF1FEA59DC
:1045C000FC4F22E025830CC0ED8DFE8DEE0FFF1F0A
:1045D000EE0FFF1FEE0FFF1FEA59FC4F23E025836C
:1045E000ED8DFE8DEE0FFF1FEE0FFF1FEE0FFF1F75
:1045F000EA59FC4F2581022E04C096958795779540
:1046000067950A94D2F702C0CC0CDD1C2A95E2F71C
:10461000D182C0826115710521E08207910568F49D
:10462000ED8DFE8DEE0FFF1FEE0FFF1FEE0FFF1F34
:10463000EA59FC4F738362830EC0ED8DFE8DEE0F41
:10464000FF1FEE0FFF1FEE0FFF1FEA59FC4F8FEF0A
:104650009FEF9383828380914003809341038F5F18
:10466000809340038A3011F410924003E0913B03A1
:10467000F0913C038A2D9B2DA22DB32D82A393A3F1
:10468000A4A3B5A340920E0350920F0360921003AF
:10469000709211032D813E814F815885C301B20173
:1046A0000E94343C9B01AC0169817A818B819C81A1
:1046B0000E944C3F60930A0370930B0380930C039A
:1046C00090930D0320911B0330911C0340911D0317
:1046D00050911E036A2D7B2D822D932D0E940E3D3D
:1046E00081111EC020E030E0A9016A2D7B2D822DB2
:1046F000932D0E94113F181634F4E1E1FCE084810F
:104700008160848313C08091150C82FF04C0816096
:104710008093150C0BC010923C0310923B0317D5ED
:10472000909142038091400398130FC86F960FB683
:10473000F894DEBF0FBECDBFDF91CF911F910F91D7
:10474000FF90EF90DF90CF90BF90AF909F908F90B1
:104750007F906F905F904F903F902F900895809141
:10476000110C8C7749F060911F03709120038091A8
:10477000210390912203089560E070E0CB01089539
:10478000F999FECF92BD81BD81E08FBB80B50895C0
:10479000F894F999FECF92BD81BD81E08FBB80B5C1
:1047A0008627962F982379F06F3F39F060BD84E01B
:1047B0008FBB8FB382608FBB0EC084E18FBB8FB382
:1047C00082608FBB08C0882331F060BD84E28FBB5C
:1047D0008FB382608FBB78940895CF92DF92FF925F
:1047E0000F931F93CF93DF938B01EA01F12C1AC033
:1047F0002F2D30E0220F331F2115310529F4FF2022
:104800002CF421E030E002C021E030E0F8016191B9
:104810008F01F62EF20E6C01FFEFCF1ADF0AB8DF20
:104820002197C601209721F76F2DB2DFDF91CF913D
:104830001F910F91FF90DF90CF900895DF92EF923C
:10484000FF920F931F93CF93DF937C01CB01EA017B
:10485000D12C1CC08C010F5F1F4F92DF2D2D30E03B
:10486000220F331F2115310529F4DD202CF421E01E
:1048700030E002C021E030E0D82ED20EF701808374
:104880002197C80197012F5F3F4F7901209711F7BA
:1048900077DF91E0D81290E0892F90E0DF91CF91FF
:1048A0001F910F91FF90EF90DF9008951F93CF938A
:1048B000DF93182FEB010E945A1821E031E0129F7C
:1048C000C001139F900D112440E051E0BE019D5F97
:1048D00084DFDF91CF911F91089540E051E0BC014A
:1048E0008EEA93E07ACF08950F931F93CF93C82F4A
:1048F0008B010E945A182DE0C29FC00111244CE088
:1049000050E0B8019E5F69DFCF911F910F9108952C
:104910006AE080E090E03CDF45E550E069EB7EE056
:1049200081E090E05ACF08950F931F93CF93DF93C8
:10493000CDB7DEB72C970FB6F894DEBF0FBECDBF54
:10494000082F80FF0AC085E5EAEEF2E0A9EBBEE0A1
:1049500005900D928A95E1F7DBDF01FF11C0FE01A2
:1049600031968CE0DF011D928A95E9F710E006C0D0
:10497000BE016F5F7F4F812FB7DF1F5F1830C0F31D
:1049800002FF10C060E080E093E002DF60E081E0C1
:1049900093E0FEDE60E081E094E0FADE60E082E039
:1049A00094E0F6DE03FF08C060E08EEA93E0F0DEFC
:1049B00060E08FEA93E0ECDE2C960FB6F894DEBF51
:1049C0000FBECDBFDF91CF911F910F9108951F931F
:1049D000CF93DF93182FEB0181E091E0189FB00196
:1049E000199F700D11247D5F40E051E0CE0126DF5C
:1049F000892B31F41882BE01812F58DF80E001C07D
:104A000081E0DF91CF911F910895CF93DF93EC0167
:104A100040E051E06EEA73E011DF892B29F418823F
:104A2000CE015BDF80E001C081E0DF91CF9108958E
:104A30001F93CF93DF93182FEB018DE0189FB001E8
:104A400011247E5F4CE050E0CE01F8DE892B51F45A
:104A50008CE0FE0111928A95E9F7BE01812F44DFB7
:104A600080E001C081E0DF91CF911F91089580E047
:104A700090E086DE8A3059F445E550E061E070E070
:104A800089EB9EE0DBDE892B21F480E0089580E055
:104A9000089581E00895CF92DF92EF92FF92CF9335
:104AA000DF93C82F6A017B0120E030E0A901C70134
:104AB000B6010E940E3D88230CF457C1C43608F499
:104AC00063C0C45680E05CC0C33008F051C0813080
:104AD00099F028F08230F1F08330C1F143C1EC2F1E
:104AE000F0E0EE0FFF1FEE0FFF1FE754F14FC08203
:104AF000D182E282F38236C1EC2FF0E03396EE0FE2
:104B0000FF1FEE0FFF1FE754F14FC082D182E282F8
:104B1000F38228C1D0E020E030E040E752E4C70152
:104B2000B6010E944C3F20E030E040E752E40E9492
:104B30004C3FFE013696EE0FFF1FEE0FFF1FE754AE
:104B4000F14F60837183828393830CC1EC2FF0E07B
:104B5000F7FAF094F7F8F0943996EE0FFF1FEE0F86
:104B6000FF1FE754F14FC082D182E282F382FAC084
:104B70008F5FCA3008F4FBC0843009F4FAC0CA5011
:104B8000843008F4A1CFEEC0C701B6010E941A40DC
:104B90000E94823D8C2F90E08132910508F0EBC09D
:104BA000FC018827ED5DFE4F8F4F0C945B40633016
:104BB00008F4E3C06093E90ED5C06093EC0ED2C058
:104BC0006093EA0E0E94DB1ACDC06093EB0E0E9448
:104BD000DB1AC8C0662331F0EEEFFEE0808184600E
:104BE0008083C0C0EEEFFEE080818B7F8083BAC0FF
:104BF000662331F0EEEFFEE0808180648083B2C0F6
:104C0000EEEFFEE080818F7B8083ACC0662331F0C5
:104C1000EEEFFEE080818068808305C0EEEFFEE06D
:104C200080818F77808380E00E94E7329BC0609311
:104C3000ED0E98C0C092EE0ED092EF0EE092F00E04
:104C4000F092F10E8FC0C092F20ED092F30EE0926D
:104C5000F40EF092F50E86C0662331F0EEEFFEE022
:104C600080818160808305C0EEEFFEE080818E7FD1
:104C700080830E94C73876C0662341F08091FE0E83
:104C800084FF7DC080628093FE0E6CC0EEEFFEE07C
:104C900080818F7D808366C0662331F0EEEFFEE079
:104CA00080818860808305C0EEEFFEE08081877F91
:104CB00080830E94B32E56C0662331F0EEEFFEE0F3
:104CC0008081806180834EC0EEEFFEE080818F7C2A
:104CD000808348C06093FF0E45C0C092000FD09201
:104CE000010FE092020FF092030F3CC0C092040F3C
:104CF000D092050FE092060FF092070F33C0862F77
:104D000090E09093090F8093080F2CC0C0920A0F77
:104D1000D0920B0FE0920C0FF0920D0F23C0C092B7
:104D2000F60ED092F70EE092F80EF092F90E0E9475
:104D3000521218C0C092FA0ED092FB0EE092FC0EF6
:104D4000F092FD0E0E9452120DC0662331F0EEEF7C
:104D5000FEE080818260808305C0EEEFFEE080810E
:104D60008D7F8083D5DD80E00BC084E009C083E0C7
:104D700007C083E005C083E003C086E001C08AE08D
:104D8000DF91CF91FF90EF90DF90CF9008956FDE8D
:104D9000811107C087E00E9478338FEFC5DD0C9446
:104DA000DD330895882321F0813021F488E00895CF
:104DB00084E0089580E10895882321F0813021F472
:104DC00080E4089580E8089580E20895882321F022
:104DD000813021F480E2089580E1089580E408950F
:104DE000811101C084E2815008958F929F92AF9209
:104DF000BF92CF92DF92EF92FF920F931F93CF93C8
:104E0000DF93EC016A017B0148015901A901980176
:104E1000C701B6010E94113F18165CF4A501940168
:104E2000C501B4010E944C3F6A8F7B8F8C8F9D8F90
:104E30000AC0A7019601C701B6010E944C3F6A8FC4
:104E40007B8F8C8F9D8F6A8D7B8D8C8D9D8DCEA061
:104E5000DFA0E8A4F9A4A70196010E94113F18164B
:104E600024F4CA8EDB8EEC8EFD8EDF91CF911F91E4
:104E70000F91FF90EF90DF90CF90BF90AF909F90F9
:104E80008F9008958F5F843209F480E008954F92E7
:104E90005F926F927F928F929F92AF92BF92CF92CA
:104EA000DF92EF92FF920F931F93CF93DF93809146
:104EB000760496DFF82EA09074048A1509F423C1B5
:104EC000082F10E086E3809FE001819FD00D112420
:104ED000C858DB4F9A8C8B8C7C8C6D8C6E8D7F8D43
:104EE00088A199A19B01AC010E94353C2AA13BA15C
:104EF0004CA15DA10E944C3FB62EC72ED82EE92EA4
:104F0000262F372F482F592F692D782D872D962D35
:104F10000E940E3D882324F4B92CC82CD72CE62CF3
:104F200086E3809FF001819FF00D1124E858FB4F2C
:104F30008B2D9C2DAD2DBE2D868B978BA08FB18F89
:104F40008F2D4EDF182FA8126EC080917704181392
:104F50006EC00E94661B6BC0C12ED12C26E32C9D17
:104F6000C0012D9D900D11249C0128583B4F7901C3
:104F7000812F36DF182F80917704181302C00E940A
:104F8000661B86E38C9DF0018D9DF00D1124E85881
:104F9000FB4F66897789808D918D828C938CA48C50
:104FA000B58CA50194010E940E3D8823D9F14E884D
:104FB0005F88688C798C86E38C9DE0018D9DD00D97
:104FC0001124C858DB4F6E8D7F8D88A199A19B015C
:104FD000AC010E94353C2AA13BA14CA15DA10E94DD
:104FE0004C3F9B01AC01C301B2010E94353C2B0137
:104FF0003C019B01AC01C501B4010E94113F181690
:105000002CF44E8A5F8A688E798E0CC086E38C9D64
:10501000F0018D9DF00D1124E858FB4F868A978A88
:10502000A08EB18EE70180917404181395CF809102
:10503000740446E3849F90011124F901E858FB4F62
:105040007F0120DF182F5BC0C12ED12C86E38C9D01
:10505000E0018D9DD00D1124C858DB4FF701468823
:105060005788608C718C8E889F88A88CB98CA5011C
:105070009401C301B2010E940E3D882334F5F7016B
:10508000668D778D80A191A19B01AC010E94353C7A
:10509000F70122A133A144A155A10E944C3F9B01DD
:1050A000AC01C301B2010E94353C2B013C019B01C4
:1050B000AC01C501B4010E94113F181634F44E8AA8
:1050C0005F8A688E798E1093740486E38C9DF0015C
:1050D0008D9DF00D1124E858FB4F66897789808DEE
:1050E000918D228D338D448D558D0E940E3D811101
:1050F00002C010937404812FC5DE182F7E018091A9
:1051000076041813A1CFDF91CF911F910F91FF90DB
:10511000EF90DF90CF90BF90AF909F908F907F9057
:105120006F905F904F9008951092770410927604DC
:1051300081E0809375041092740408958CE1E8E591
:10514000F4E0DF011D928A95E9F7EECF0895CF9341
:1051500080917604C09177048C1751F08C2F92DEE9
:1051600090917404C91302C08093740480937704EF
:10517000CF9108958091760426E3829FC001112487
:1051800088589B4F089590917604809177049817E2
:1051900039F026E3829FC001112488589B4F08955F
:1051A00080E090E00895809177046CDE9091760421
:1051B000891759F096E3899FF0011124E858FB4FB5
:1051C00066897789808D918D089560E070E0CB01CC
:1051D00008959091770480917504981302C081E03E
:1051E000089580E00895BF92CF92DF92EF92FF92F0
:1051F0000F931F93CF93DF93EC01EEA4DFA4C8A815
:10520000B9A8898980FF1AC06091190C70E080E00C
:1052100090E00E94B03D2AE037ED43E25CE30E945B
:105220004C3F9B01AC016E2D7D2D8C2D9B2D0E9442
:105230004C3FF62E072F182FC92F2FC082FD19C003
:105240006091180C70E080E090E00E94B03D2AE090
:1052500037ED43E25CE30E944C3F9B01AC016E2DB5
:105260007D2D8C2D9B2D0E944C3FE62ED72EC82ED7
:10527000B92EFAA40BA51CA5CDA52F2D302F412F9B
:105280005C2F6E2D7D2D8C2D9B2D0E94113F1816AD
:1052900024F0FE2C0D2D1C2DCB2D20E030E040E81D
:1052A0005FE36F2D702F812F9C2F0E94113F1816E6
:1052B00024F0F12C00E010E8CFE36F2D702F812F48
:1052C0009C2FDF91CF911F910F91FF90EF90DF9076
:1052D000CF90BF9008957F928F929F92AF92BF928E
:1052E000CF92DF92EF92FF920F931F93CF93DF93B2
:1052F000F09077040F2EF9E97F2EF02D0F2EF6E7B0
:105300008F2EF02D0F2EF6E99F2EF02D0F2EFEE79B
:10531000AF2EF02D1DC086E3F89EE0011124C85881
:10532000DB4FCE0160DFB62EC72ED82EE92E072D1B
:10533000182D292D3A2D462F572F682F792FCE0162
:1053400054DD8F2D9FDDF82E7B2C8C2C9D2CAE2CCC
:1053500080917604F812DFCF872D982DA92DBA2DD4
:105360008093700490937104A0937204B0937304BB
:10537000DF91CF911F910F91FF90EF90DF90CF9031
:10538000BF90AF909F908F907F9008952F923F9203
:105390004F925F926F927F928F929F92AF92BF9245
:1053A000CF92DF92EF92FF920F931F93CF93DF93F1
:1053B000CDB7DEB7E6970FB6F894DEBF0FBECDBF10
:1053C0005C017EAB6DABC0907604D12C86E38C9DE6
:1053D00090018D9D300D1124A90148585B4F1A0191
:1053E000FA0111928A95E9F7EDA9FEA98485FA01DF
:1053F000818BEDA9FEA94481558166817781F101F8
:1054000042AB53AB64AB75ABEDA9FEA940855185AA
:1054100062857385F101428B538B648B758B81FFA1
:105420000BC08CE0E1E3FCE0DE011D9601900D92E3
:105430008A95E1F7912C9BC08CE0E8E5F4E0DE0171
:105440001D9601900D928A95E1F7F4CF092D10E099
:105450007801EE0CFF1CEE0CFF1CF501EE0DFF1D9C
:105460006081718182819381F701E754F14F20813E
:1054700031814281538129AB3AAB4BAB5CAB0E948B
:105480004C3F0E941C3FE1E0F0E0EC0FFD1FEE0DF1
:10549000FF1D608371838283938344845584668473
:1054A000778464197509860997099B01AC013AF460
:1054B00022273327A901261B370B480B590BE6E39C
:1054C000EC9DD001ED9DB00D1124F801EE0FFF1FF2
:1054D000EE0FFF1FEA0FFB1FE858FB4F20833183BD
:1054E00042835383FD01E858FB4F4484558466840E
:1054F0007784241535054605570510F4A30192015C
:10550000A6E3AC9DF001AD9DF00D1124E858FB4FD2
:1055100024873587468757870E94B03D29A93AA935
:105520004BA95CA90E94153D000F111F000F111F10
:10553000E1E0F0E0EC0FFD1FE00FF11F608F718FD5
:10554000828F938F20E030E0A9010E940E3D8823D6
:105550006CF4892D31DC96E39C9DF0019D9DF00D4E
:105560001124E858FB4F9089892B808B939432E06B
:10557000391508F06BCF86E38C9DF0018D9DF00D01
:105580001124E858FB4F84859585A685B785892B1E
:105590008A2B8B2B09F487C1CE014996FAD226E3D8
:1055A0002C9D80012D9D100D112408581B4FF801D2
:1055B00062A373A384A395A3BE01675E7F4F81EDB1
:1055C0009EE059D3F801668F778F80A391A3BE0127
:1055D000675E7F4F85EC9EE04ED3F80162A773A70C
:1055E00084A795A7118910FF0DC026E32C9DF0011B
:1055F0002D9DF00D1124E858FB4F66A777A780ABCF
:1056000091AB20C0EDA9FEA9608171818281938157
:1056100026E32C9DF0012D9DF00D1124E858FB4F41
:1056200066A777A780AB91AB13FF0CC07F0122A1C7
:1056300033A144A155A10E944C3FF70166A777A76B
:1056400080AB91AB9091760480917704981711F01C
:1056500011FF4DC086E38C9DF0018D9DF00D11244E
:10566000E858FB4F168A178A108E118E16A217A2C1
:1056700010A611A6DAC0E12EF12CF7013396EE0F39
:10568000FF1FEE0FFF1FE85AFB4F80809180A28022
:10569000B380EE0CFF1CEE0CFF1C21E030E02C0F61
:1056A0003D1FE20EF31EF701408C518C628C738C0F
:1056B000A3019201C501B4010E944C3F9B01AC01C2
:1056C00069A97AA98BA99CA90E94343C69AB7AABE1
:1056D0008BAB9CABA5019401C301B2010E94343C89
:1056E000F70164A375A386A397A31F5F05C019AA3A
:1056F0001AAA1BAA1CAA10E0133008F4BCCF2FEE84
:105700003FEF4FE75FE369A97AA98BA99CA90E94A3
:10571000113F18166CF486E38C9DF0018D9DF00D01
:105720001124E858FB4F16A217A210A611A67DC09F
:105730002FEE3FEF4FE75FEB69A97AA98BA99CA9F0
:105740000E940E3D88238CF486E38C9DF0018D9D94
:10575000F00D1124E858FB4F89E996E7A6E9BEE76A
:1057600086A397A3A0A7B1A760C0CE01859611D24A
:10577000BE016B5D7F4F81ED9EE07DD24B015C01F0
:1057800029A93AA94BA95CA960E070E080E89FE3F1
:105790000E94343C20E030E040E05FE30E944C3F58
:1057A0000E94D93F2B013C012091EE0E3091EF0E6B
:1057B0004091F00E5091F10EC501B4010E944C3F92
:1057C0009B01AC01C301B2010E944C3F4B015C0143
:1057D000A301920160E070E080E89FE30E94343C06
:1057E0009B01AC01C501B4010E94153DE62EF72EC8
:1057F000082F192F20E030E0A9010E940E3D8823D8
:1058000024F4E12CF12C00E010E086E38C9DF00103
:105810008D9DF00D1124E858FB4F4E2D5F2D602F0C
:10582000712F46A357A360A771A786E38C9DF00153
:105830008D9DF00D1124E858FB4F818981FD35C005
:10584000C101D1DC4B015C010F2EF8E5EF2EF4E035
:10585000FF2EF02DF701008D118D228D338DAB01C0
:10586000BC01C101C2DAF701808E918EA28EB38E87
:105870008CE0FE017996A4E6B4E001900D928A9541
:10588000E1F78CE0FE013196D70101900D928A95E7
:10589000E1F78091750480937604F4DA80937504BF
:1058A000F6DA81E003C080E001C081E0E6960FB641
:1058B000F894DEBF0FBECDBFDF91CF911F910F9146
:1058C000FF90EF90DF90CF90BF90AF909F908F9020
:1058D0007F906F905F904F903F902F90089520E0C1
:1058E00015C0822F90E0880F991F880F991FFC0127
:1058F000EF5CF34F4081518162817381FC01E85A72
:10590000FB4F40835183628373832F5F233048F3BF
:1059100008959091760480917704981718F0891B68
:105920008D5D0895891B815008950E94661B8091AA
:10593000770480937404ABCA08954F925F926F927C
:105940007F928F929F92AF92BF92CF92DF92EF920F
:10595000FF920F931F93CF93DF93FC01DB01CC9158
:10596000D0E0DC01AC0FBD1F2196C80FD91F9C9160
:105970009D3231F4ED01229611969C9101E009C00F
:105980009B3231F4ED01229611969C9100E001C00A
:1059900000E080E020E010E0412C512C32019053D7
:1059A0009A3010F52F5F2930D8F48111115053012E
:1059B0004201880C991CAA1CBB1C880C991CAA1CAF
:1059C000BB1C840C951CA61CB71C880C991CAA1C1B
:1059D000BB1C24013501490E511C611C711C09C0FE
:1059E000811107C01F5F05C09E3F31F4811104C0C3
:1059F00081E098812196D3CF222309F453C06A0114
:105A00007B015F01C301B2010E94AE3D2B013C014D
:105A100020E030E0A9010E940E3D81110CC029C098
:105A20002AE037ED43E25CE3C301B2010E944C3F40
:105A30002B013C011E5F1F3F9CF311235CF42DECF6
:105A40003CEC4CEC5DE3C301B2010E944C3F2B01E6
:105A50003C010FC011166CF420E030E040E251E44C
:105A6000C301B2010E944C3F2B013C0111501116A1
:105A70009CF3002351F077FA709477F87094F60154
:105A8000408251826282738206C0D6014D925D923D
:105A90006D927C921397CA19DB09C150F701C0833C
:105AA00081E001C080E0DF91CF911F910F91FF90C5
:105AB000EF90DF90CF90BF90AF909F908F907F90AE
:105AC0006F905F904F9008951F93CF93DF93142FA3
:105AD00020E030E040EA51E40E944C3F0E94FB3C51
